:0400000046EF00F0D7
:100008002A82FACF05F0FBCF06F0E9CF07F0EACF56
:1000180008F0E1CF09F0E2CF0AF0D9CF0BF0DACF40
:100028000CF0F3CF0DF0F4CF0EF0F6CF0FF0F7CFC2
:1000380010F0F8CF11F0F5CF12F00E01C2A904D0DC
:100048000E01CAB935EC03F012C0F5FF11C0F8FF74
:1000580010C0F7FF0FC0F6FF0EC0F4FF0DC0F3FF8E
:100068000CC0DAFF0BC0D9FF0AC0E2FF09C0E1FFEC
:1000780008C0EAFF07C0E9FF06C0FBFF05C0FAFF9A
:100088002A92110009EF03F0166E000E176E010E8A
:10009800186E010E196E010E1A6E010E1B6E010EFE
:1000A8001C6E010E1D6E010E1E6E1650D8B441D086
:1000B8001704D8A403D0FFEC02F002D01BEC03F025
:1000C8001804D8A403D0FFEC02F002D01BEC03F014
:1000D8001904D8A403D0FFEC02F002D01BEC03F003
:1000E8001A04D8A403D0FFEC02F002D01BEC03F0F2
:1000F8001B04D8A403D0FFEC02F002D01BEC03F0E1
:100108001C04D8A403D0FFEC02F002D01BEC03F0CF
:100118001D04D8A403D0FFEC02F002D01BEC03F0BE
:100128001E04D8A403D0FFEC02F005D01BEC03F0AA
:1001380002D07BEC02F01350D8B441D01704D8A4F5
:1001480003D0FFEC02F002D01BEC03F01804D8A493
:1001580003D0FFEC02F002D01BEC03F01904D8A482
:1001680003D0FFEC02F002D01BEC03F01A04D8A471
:1001780003D0FFEC02F002D01BEC03F01B04D8A460
:1001880003D0FFEC02F002D01BEC03F01C04D8A44F
:1001980003D0FFEC02F002D01BEC03F01D04D8A43E
:1001A80003D0FFEC02F002D01BEC03F01E04D8A42D
:1001B80003D0FFEC02F005D01BEC03F002D07BEC7F
:1001C80002F01450D8B441D01704D8A403D0FFECDF
:1001D80002F002D01BEC03F01804D8A403D0FFEC03
:1001E80002F002D01BEC03F01904D8A403D0FFECF2
:1001F80002F002D01BEC03F01A04D8A403D0FFECE1
:1002080002F002D01BEC03F01B04D8A403D0FFECCF
:1002180002F002D01BEC03F01C04D8A403D0FFECBE
:1002280002F002D01BEC03F01D04D8A403D0FFECAD
:1002380002F002D01BEC03F01E04D8A403D012EC89
:1002480003F012002DEC03F012007BEC02F0120018
:10025800030E146EFE0E136E9CEC02F0296E000E57
:10026800836E000E846E000E856E88688968FE0EA7
:100278008A6E0F012169EE0E0F01196F0F011169C6
:10028800000E0F012D6F010E0F01186F000E0F01E8
:10029800106F000E0F01206F000E0F010F6F000E80
:1002A8000F01176F000E0F011F6F090E166E1E0E3D
:1002B800156EE40EE82EFED7152EFCD7162EFAD7AB
:1002C80000D00F0112810F0113810F011491840EC8
:1002D800136E060E146E3BEC03F00E01C289000E7D
:1002E800F2BE010E176EF29E550E0E01A06FAA0EF9
:1002F8000E01A06F0E01A0910E01AE91AE93AE85D6
:10030800AE87AE99550E0E01A06FAA0E0E01A06F12
:100318000E01A08117A002D0F28E01D0F29EF28EBB
:10032800120024EC03F0000E246E000E236E000E63
:10033800266E000E226E000E296E000E0F015FB1B0
:10034800010E69EC02F013C023F014C024F023C09E
:1003580020F024C021F0D89021322032D8902132C8
:1003680020322050266E000E256E180E256401D00E
:1003780035D02950D8A403D0F5EC02F02DD0020EC8
:10038800296004D02650EAEC02F026D0030E29603A
:1003980004D02650BEEC02F01FD0040E296004D011
:1003A8002650C9EC02F018D0050E296004D026505A
:1003B800D4EC02F011D0060E296004D02650DFECF0
:1003C80002F00AD0070E296004D02650A8EC02F0EB
:1003D80003D02650B3EC02F0252AC7D7350EE82EF5
:1003E800FED700F0AAD7000E0F01596F000E0F01BB
:1003F8005A6F000E0F015B6F000E0F01566F000E53
:10040800656E3F0E0F01576F000E0F01586F000EFB
:100418000F015D6F000E0F015E6F000E0F015C6F24
:10042800000E0F015F6F000E666E000E6A6E000E02
:100438006B6E000E6C6E000E6D6E000E686E000E18
:10044800696E840E606E12000E01C2992750281042
:10045800D8B419D001D80AD00500FA6E2750FD6E1D
:100468002850FE6EF850FF6EFA5012008EB00BD076
:10047800292A070E2916030E026EFE0E016E29C0E8
:1004880003F04CEC02F00F0112910E01C289120028
:10049800000EF2BE010E046E0250030B7F6E01C007
:1004A8007EFF03C080FF3F0E81168184F29E550EA9
:1004B800826EAA0E826E818281B2FED7819404B0C8
:1004C80002D0F29E01D0F28E1200176E17C05FFFA5
:1004D800608E609C608060B0FED76450166E156AAE
:1004E80063501524136E000E1620146E12001BECB8
:1004F80003F01BEC03F01BEC03F01BEC03F01BEC0C
:1005080003F01BEC03F01BEC03F01BEC03F01200F0
:10051800600E0E01D86F000E0E01DA6F000E0E018C
:10052800DC6F080E0E01DE6F000E0E01DD6F12008B
:100538001450030B7F6E13C07EFF3F0E811681801F
:1005480000F000F0805012001F6E010E136E000EB6
:10055800146E1FC015F0010E48EC00F012001F6E5B
:10056800010E136E010E146E1FC015F0010E48EC3B
:1005780000F012001F6E000E136E000E146E1FC0E6
:1005880015F0010E48EC00F012001F6E000E136EFD
:10059800010E146E1FC015F0010E48EC00F0120099
:1005A8001F6E010E136E000E146E1FC015F0000EA4
:1005B80048EC00F012001F6E010E136E010E146E4F
:1005C8001FC015F0000E48EC00F012001F6E000E60
:1005D800136E010E146E1FC015F0000E48EC00F0EB
:1005E8001200000E136E000E146E000E156E000E33
:1005F80048EC00F012008F80030EE82EFED700D0E2
:100608008F90030EE82EFED71200286A276A2A90D8
:100618002A92000EF86E000195EF01F08F80030E0C
:10062800E82EFED700D08F9000D000D012008F8027
:1006380000D000D000F08F90030EE82EFED71200F5
:1006480040EC03F02CEC01F08CEC02F0F7EC01F03C
:1006580012008F8000D000D000F08F9000D000D022
:1006680012000F0112A1120028EC02F0120013C0B0
:0E06780027F014C028F01200F29A12001200AF
:020000040020DA
:10000000FF0FFF0FFF0FFF0FFF0FFF0FFF0FFF0F80
:020000040030CA
:0C0000008CFFFFFF9FFFFFDFFFFFFFFFF3
:00000001FF
